{
  "_format": "hh-sol-artifact-1",
  "contractName": "IdentityRegistry",
  "sourceName": "contracts/IdentityRegistry.sol",
  "abi": [
    {
      "inputs": [],
      "stateMutability": "nonpayable",
      "type": "constructor"
    },
    {
      "inputs": [
        {
          "internalType": "address",
          "name": "target",
          "type": "address"
        }
      ],
      "name": "AddressEmptyCode",
      "type": "error"
    },
    {
      "inputs": [
        {
          "internalType": "address",
          "name": "implementation",
          "type": "address"
        }
      ],
      "name": "ERC1967InvalidImplementation",
      "type": "error"
    },
    {
      "inputs": [],
      "name": "ERC1967NonPayable",
      "type": "error"
    },
    {
      "inputs": [],
      "name": "FailedCall",
      "type": "error"
    },
    {
      "inputs": [],
      "name": "InvalidInitialization",
      "type": "error"
    },
    {
      "inputs": [],
      "name": "NotInitializing",
      "type": "error"
    },
    {
      "inputs": [
        {
          "internalType": "address",
          "name": "owner",
          "type": "address"
        }
      ],
      "name": "OwnableInvalidOwner",
      "type": "error"
    },
    {
      "inputs": [
        {
          "internalType": "address",
          "name": "account",
          "type": "address"
        }
      ],
      "name": "OwnableUnauthorizedAccount",
      "type": "error"
    },
    {
      "inputs": [],
      "name": "ReentrancyGuardReentrantCall",
      "type": "error"
    },
    {
      "inputs": [],
      "name": "UUPSUnauthorizedCallContext",
      "type": "error"
    },
    {
      "inputs": [
        {
          "internalType": "bytes32",
          "name": "slot",
          "type": "bytes32"
        }
      ],
      "name": "UUPSUnsupportedProxiableUUID",
      "type": "error"
    },
    {
      "anonymous": false,
      "inputs": [
        {
          "indexed": true,
          "internalType": "address",
          "name": "user",
          "type": "address"
        },
        {
          "indexed": false,
          "internalType": "enum IdentityRegistry.ClaimType",
          "name": "claimType",
          "type": "uint8"
        },
        {
          "indexed": false,
          "internalType": "uint256",
          "name": "timestamp",
          "type": "uint256"
        }
      ],
      "name": "ClaimRevoked",
      "type": "event"
    },
    {
      "anonymous": false,
      "inputs": [
        {
          "indexed": true,
          "internalType": "address",
          "name": "user",
          "type": "address"
        },
        {
          "indexed": false,
          "internalType": "enum IdentityRegistry.ClaimType",
          "name": "claimType",
          "type": "uint8"
        },
        {
          "indexed": false,
          "internalType": "uint256",
          "name": "timestamp",
          "type": "uint256"
        }
      ],
      "name": "ClaimVerified",
      "type": "event"
    },
    {
      "anonymous": false,
      "inputs": [
        {
          "indexed": true,
          "internalType": "address",
          "name": "user",
          "type": "address"
        },
        {
          "indexed": false,
          "internalType": "bytes32",
          "name": "identityHash",
          "type": "bytes32"
        },
        {
          "indexed": false,
          "internalType": "uint256",
          "name": "timestamp",
          "type": "uint256"
        }
      ],
      "name": "IdentityRegistered",
      "type": "event"
    },
    {
      "anonymous": false,
      "inputs": [
        {
          "indexed": false,
          "internalType": "uint64",
          "name": "version",
          "type": "uint64"
        }
      ],
      "name": "Initialized",
      "type": "event"
    },
    {
      "anonymous": false,
      "inputs": [
        {
          "indexed": true,
          "internalType": "address",
          "name": "previousOwner",
          "type": "address"
        },
        {
          "indexed": true,
          "internalType": "address",
          "name": "newOwner",
          "type": "address"
        }
      ],
      "name": "OwnershipTransferStarted",
      "type": "event"
    },
    {
      "anonymous": false,
      "inputs": [
        {
          "indexed": true,
          "internalType": "address",
          "name": "previousOwner",
          "type": "address"
        },
        {
          "indexed": true,
          "internalType": "address",
          "name": "newOwner",
          "type": "address"
        }
      ],
      "name": "OwnershipTransferred",
      "type": "event"
    },
    {
      "anonymous": false,
      "inputs": [
        {
          "indexed": true,
          "internalType": "address",
          "name": "implementation",
          "type": "address"
        }
      ],
      "name": "Upgraded",
      "type": "event"
    },
    {
      "anonymous": false,
      "inputs": [
        {
          "indexed": true,
          "internalType": "enum IdentityRegistry.ClaimType",
          "name": "claimType",
          "type": "uint8"
        },
        {
          "indexed": false,
          "internalType": "address",
          "name": "newVerifier",
          "type": "address"
        }
      ],
      "name": "VerifierUpdated",
      "type": "event"
    },
    {
      "inputs": [],
      "name": "UPGRADE_INTERFACE_VERSION",
      "outputs": [
        {
          "internalType": "string",
          "name": "",
          "type": "string"
        }
      ],
      "stateMutability": "view",
      "type": "function"
    },
    {
      "inputs": [],
      "name": "acceptOwnership",
      "outputs": [],
      "stateMutability": "nonpayable",
      "type": "function"
    },
    {
      "inputs": [
        {
          "internalType": "address",
          "name": "_user",
          "type": "address"
        },
        {
          "internalType": "enum IdentityRegistry.ClaimType",
          "name": "_claimType",
          "type": "uint8"
        }
      ],
      "name": "adminRevokeClaim",
      "outputs": [],
      "stateMutability": "nonpayable",
      "type": "function"
    },
    {
      "inputs": [],
      "name": "ageVerifier",
      "outputs": [
        {
          "internalType": "contract IAgeVerifier",
          "name": "",
          "type": "address"
        }
      ],
      "stateMutability": "view",
      "type": "function"
    },
    {
      "inputs": [
        {
          "internalType": "address",
          "name": "user",
          "type": "address"
        }
      ],
      "name": "getIdentityHash",
      "outputs": [
        {
          "internalType": "bytes32",
          "name": "",
          "type": "bytes32"
        }
      ],
      "stateMutability": "view",
      "type": "function"
    },
    {
      "inputs": [
        {
          "internalType": "address",
          "name": "_ageVerifier",
          "type": "address"
        },
        {
          "internalType": "address",
          "name": "_nationalityVerifier",
          "type": "address"
        },
        {
          "internalType": "address",
          "name": "_studentVerifier",
          "type": "address"
        }
      ],
      "name": "initialize",
      "outputs": [],
      "stateMutability": "nonpayable",
      "type": "function"
    },
    {
      "inputs": [
        {
          "internalType": "address",
          "name": "user",
          "type": "address"
        }
      ],
      "name": "isRegistered",
      "outputs": [
        {
          "internalType": "bool",
          "name": "",
          "type": "bool"
        }
      ],
      "stateMutability": "view",
      "type": "function"
    },
    {
      "inputs": [
        {
          "internalType": "address",
          "name": "user",
          "type": "address"
        },
        {
          "internalType": "enum IdentityRegistry.ClaimType",
          "name": "claimType",
          "type": "uint8"
        }
      ],
      "name": "isRevoked",
      "outputs": [
        {
          "internalType": "bool",
          "name": "",
          "type": "bool"
        }
      ],
      "stateMutability": "view",
      "type": "function"
    },
    {
      "inputs": [
        {
          "internalType": "address",
          "name": "user",
          "type": "address"
        },
        {
          "internalType": "enum IdentityRegistry.ClaimType",
          "name": "claimType",
          "type": "uint8"
        }
      ],
      "name": "isVerified",
      "outputs": [
        {
          "internalType": "bool",
          "name": "verified",
          "type": "bool"
        },
        {
          "internalType": "uint256",
          "name": "timestamp",
          "type": "uint256"
        }
      ],
      "stateMutability": "view",
      "type": "function"
    },
    {
      "inputs": [],
      "name": "nationalityVerifier",
      "outputs": [
        {
          "internalType": "contract INationalityVerifier",
          "name": "",
          "type": "address"
        }
      ],
      "stateMutability": "view",
      "type": "function"
    },
    {
      "inputs": [
        {
          "internalType": "uint256",
          "name": "",
          "type": "uint256"
        }
      ],
      "name": "nullifiers",
      "outputs": [
        {
          "internalType": "bool",
          "name": "",
          "type": "bool"
        }
      ],
      "stateMutability": "view",
      "type": "function"
    },
    {
      "inputs": [],
      "name": "owner",
      "outputs": [
        {
          "internalType": "address",
          "name": "",
          "type": "address"
        }
      ],
      "stateMutability": "view",
      "type": "function"
    },
    {
      "inputs": [],
      "name": "pendingOwner",
      "outputs": [
        {
          "internalType": "address",
          "name": "",
          "type": "address"
        }
      ],
      "stateMutability": "view",
      "type": "function"
    },
    {
      "inputs": [],
      "name": "proxiableUUID",
      "outputs": [
        {
          "internalType": "bytes32",
          "name": "",
          "type": "bytes32"
        }
      ],
      "stateMutability": "view",
      "type": "function"
    },
    {
      "inputs": [
        {
          "internalType": "bytes32",
          "name": "_identityHash",
          "type": "bytes32"
        }
      ],
      "name": "registerIdentity",
      "outputs": [],
      "stateMutability": "nonpayable",
      "type": "function"
    },
    {
      "inputs": [],
      "name": "renounceOwnership",
      "outputs": [],
      "stateMutability": "nonpayable",
      "type": "function"
    },
    {
      "inputs": [
        {
          "internalType": "address",
          "name": "_user",
          "type": "address"
        }
      ],
      "name": "revokeIdentity",
      "outputs": [],
      "stateMutability": "nonpayable",
      "type": "function"
    },
    {
      "inputs": [
        {
          "internalType": "address",
          "name": "",
          "type": "address"
        },
        {
          "internalType": "enum IdentityRegistry.ClaimType",
          "name": "",
          "type": "uint8"
        }
      ],
      "name": "revokedClaims",
      "outputs": [
        {
          "internalType": "bool",
          "name": "",
          "type": "bool"
        }
      ],
      "stateMutability": "view",
      "type": "function"
    },
    {
      "inputs": [],
      "name": "studentVerifier",
      "outputs": [
        {
          "internalType": "contract IStudentVerifier",
          "name": "",
          "type": "address"
        }
      ],
      "stateMutability": "view",
      "type": "function"
    },
    {
      "inputs": [
        {
          "internalType": "address",
          "name": "newOwner",
          "type": "address"
        }
      ],
      "name": "transferOwnership",
      "outputs": [],
      "stateMutability": "nonpayable",
      "type": "function"
    },
    {
      "inputs": [
        {
          "internalType": "enum IdentityRegistry.ClaimType",
          "name": "claimType",
          "type": "uint8"
        },
        {
          "internalType": "address",
          "name": "newVerifier",
          "type": "address"
        }
      ],
      "name": "updateVerifier",
      "outputs": [],
      "stateMutability": "nonpayable",
      "type": "function"
    },
    {
      "inputs": [
        {
          "internalType": "address",
          "name": "newImplementation",
          "type": "address"
        },
        {
          "internalType": "bytes",
          "name": "data",
          "type": "bytes"
        }
      ],
      "name": "upgradeToAndCall",
      "outputs": [],
      "stateMutability": "payable",
      "type": "function"
    },
    {
      "inputs": [
        {
          "internalType": "uint256[2]",
          "name": "a",
          "type": "uint256[2]"
        },
        {
          "internalType": "uint256[2][2]",
          "name": "b",
          "type": "uint256[2][2]"
        },
        {
          "internalType": "uint256[2]",
          "name": "c",
          "type": "uint256[2]"
        },
        {
          "internalType": "uint256[4]",
          "name": "publicSignals",
          "type": "uint256[4]"
        }
      ],
      "name": "verifyAge",
      "outputs": [],
      "stateMutability": "nonpayable",
      "type": "function"
    },
    {
      "inputs": [
        {
          "internalType": "uint256[2]",
          "name": "a",
          "type": "uint256[2]"
        },
        {
          "internalType": "uint256[2][2]",
          "name": "b",
          "type": "uint256[2][2]"
        },
        {
          "internalType": "uint256[2]",
          "name": "c",
          "type": "uint256[2]"
        },
        {
          "internalType": "uint256[3]",
          "name": "publicSignals",
          "type": "uint256[3]"
        }
      ],
      "name": "verifyNationality",
      "outputs": [],
      "stateMutability": "nonpayable",
      "type": "function"
    },
    {
      "inputs": [
        {
          "internalType": "uint256[2]",
          "name": "a",
          "type": "uint256[2]"
        },
        {
          "internalType": "uint256[2][2]",
          "name": "b",
          "type": "uint256[2][2]"
        },
        {
          "internalType": "uint256[2]",
          "name": "c",
          "type": "uint256[2]"
        },
        {
          "internalType": "uint256[3]",
          "name": "publicSignals",
          "type": "uint256[3]"
        }
      ],
      "name": "verifyStudent",
      "outputs": [],
      "stateMutability": "nonpayable",
      "type": "function"
    }
  ],
  "bytecode": "0x60a06040523060805234801561001457600080fd5b5061001d610022565b6100d4565b7ff0c57e16840df040f15088dc2f81fe391c3923bec73e23a9662efc9c229c6a00805468010000000000000000900460ff16156100725760405163f92ee8a960e01b815260040160405180910390fd5b80546001600160401b03908116146100d15780546001600160401b0319166001600160401b0390811782556040519081527fc7f505b2f371ae2175ee4913f4499e1f2633a7b5936321eed1cdaeb6115181d29060200160405180910390a15b50565b608051612064620000fe6000396000818161148e015281816114b701526115fd01526120646000f3fe6080604052600436106101655760003560e01c80638d4d99a5116100d1578063c0c53b8b1161008a578063d4a26b1f11610064578063d4a26b1f1461048a578063e30c3978146104aa578063eb70ca72146104bf578063f2fde38b146104df57600080fd5b8063c0c53b8b146103fe578063c3c5a5471461041e578063d21e82ab1461045a57600080fd5b80638d4d99a51461032b5780638da5cb5b1461034b5780639fa06a4f14610360578063ac54091714610380578063ad3cb1cc146103a0578063bd15f13f146103de57600080fd5b8063496dbd7211610123578063496dbd72146102745780634f1ef286146102ab57806352d1902d146102be57806358af7112146102e1578063715018a61461030157806379ba50971461031657600080fd5b80624333801461016a5780630d12479f146101ba5780630ebddd17146101f2578063103d9fae1461021457806320c6598a146102345780633ffd526714610254575b600080fd5b34801561017657600080fd5b506101a5610185366004611992565b600560209081526000928352604080842090915290825290205460ff1681565b60405190151581526020015b60405180910390f35b3480156101c657600080fd5b506000546101da906001600160a01b031681565b6040516001600160a01b0390911681526020016101b1565b3480156101fe57600080fd5b5061021261020d3660046119c5565b6104ff565b005b34801561022057600080fd5b5061021261022f3660046119e0565b6105c6565b34801561024057600080fd5b506101a561024f366004611992565b61071a565b34801561026057600080fd5b5061021261026f366004611992565b610771565b34801561028057600080fd5b5061029461028f366004611992565b610882565b6040805192151583526020830191909152016101b1565b6102126102b9366004611a69565b610934565b3480156102ca57600080fd5b506102d3610953565b6040519081526020016101b1565b3480156102ed57600080fd5b506102d36102fc3660046119c5565b610970565b34801561030d57600080fd5b506102126109eb565b34801561032257600080fd5b506102126109ff565b34801561033757600080fd5b50610212610346366004611b0f565b610a44565b34801561035757600080fd5b506101da610b3e565b34801561036c57600080fd5b5061021261037b366004611bd8565b610b73565b34801561038c57600080fd5b5061021261039b366004611c90565b610db4565b3480156103ac57600080fd5b506103d1604051806040016040528060058152602001640352e302e360dc1b81525081565b6040516101b19190611d29565b3480156103ea57600080fd5b506001546101da906001600160a01b031681565b34801561040a57600080fd5b50610212610419366004611d5c565b610fe0565b34801561042a57600080fd5b506101a56104393660046119c5565b6001600160a01b031660009081526003602052604090206002015460ff1690565b34801561046657600080fd5b506101a56104753660046119e0565b60046020526000908152604090205460ff1681565b34801561049657600080fd5b506002546101da906001600160a01b031681565b3480156104b657600080fd5b506101da61113f565b3480156104cb57600080fd5b506102126104da366004611bd8565b611168565b3480156104eb57600080fd5b506102126104fa3660046119c5565b611380565b610507611405565b6001600160a01b03811660008181526003602081815260408084208480529092018152818320805460ff1990811690915560018085528385208054831690556002808652848620805484169055868652600584528486208680529093528385208054831682179055808552838520805483168217905591845282842080549091169091179055517f9b0f8610e90926b88d17eafd379d91251e207e33f935f1b2499c23e799e9d95e916105bb914290611db5565b60405180910390a250565b6105ce611437565b3360009081526003602052604090206002015460ff16156106365760405162461bcd60e51b815260206004820152601b60248201527f4964656e7469747920616c72656164792072656769737465726564000000000060448201526064015b60405180910390fd5b60008190036106875760405162461bcd60e51b815260206004820152601960248201527f436f6d6d69746d656e742063616e6e6f74206265207a65726f00000000000000604482015260640161062d565b3360008181526003602090815260409182902080546001600160a01b03191684178155600180820186905560028201805460ff19169091179055426005820181905583518681529283015292917fd1728799782e5ec0cad3e312c9701f68dcc48de6a9d86a1e47a80abfe63a9cb0910160405180910390a250610717600160008051602061200f83398151915255565b50565b6001600160a01b03821660009081526005602052604081208183600281111561074557610745611d9f565b600281111561075657610756611d9f565b815260208101919091526040016000205460ff169392505050565b610779611405565b6001600160a01b0382166000908152600360208190526040822001818360028111156107a7576107a7611d9f565b60028111156107b8576107b8611d9f565b815260208082019290925260409081016000908120805460ff1916941515949094179093556001600160a01b03851683526005909152812060019183600281111561080557610805611d9f565b600281111561081657610816611d9f565b815260200190815260200160002060006101000a81548160ff021916908315150217905550816001600160a01b03167f9b0f8610e90926b88d17eafd379d91251e207e33f935f1b2499c23e799e9d95e8242604051610876929190611db5565b60405180910390a25050565b6001600160a01b03821660009081526003602081905260408220829101818460028111156108b2576108b2611d9f565b60028111156108c3576108c3611d9f565b815260208082019290925260409081016000908120546001600160a01b0388168252600390935290812060ff909216916004019085600281111561090957610909611d9f565b600281111561091a5761091a611d9f565b815260200190815260200160002054915091509250929050565b61093c611483565b61094582611528565b61094f8282611530565b5050565b600061095d6115f2565b50600080516020611fef83398151915290565b6001600160a01b03811660009081526003602052604081206002015460ff166109cc5760405162461bcd60e51b815260206004820152600e60248201526d139bdd081c9959da5cdd195c995960921b604482015260640161062d565b506001600160a01b031660009081526003602052604090206001015490565b6109f3611405565b6109fd600061163b565b565b3380610a0961113f565b6001600160a01b031614610a3b5760405163118cdaa760e01b81526001600160a01b038216600482015260240161062d565b6107178161163b565b610a4c611405565b6000826002811115610a6057610a60611d9f565b03610a8557600080546001600160a01b0319166001600160a01b038316179055610af3565b6001826002811115610a9957610a99611d9f565b03610abe57600180546001600160a01b0319166001600160a01b038316179055610af3565b6002826002811115610ad257610ad2611d9f565b03610af357600280546001600160a01b0319166001600160a01b0383161790555b816002811115610b0557610b05611d9f565b6040516001600160a01b03831681527f856d2aea46417563969401eda075e90331470acb355537019a5d612eb32d310690602001610876565b6000807f9016d09d72d40fdae2fd8ceac6b6234c7706214fd39c1cd1e609a0528c1993005b546001600160a01b031692915050565b610b7b611437565b3360009081526003602052604090206002015460ff16610bad5760405162461bcd60e51b815260040161062d90611de1565b33600090815260036020526040902060010154815114610bdf5760405162461bcd60e51b815260040161062d90611e18565b60408082015160009081526004602052205460ff1615610c375760405162461bcd60e51b815260206004820152601360248201527213955313125192515497d15612105554d51151606a1b604482015260640161062d565b3360009081526005602090815260408083206002845290915290205460ff1615610c735760405162461bcd60e51b815260040161062d90611e45565b6002546040516308a3cff560e11b81526001600160a01b03909116906311479fea90610ca9908790879087908790600401611ebf565b602060405180830381865afa158015610cc6573d6000803e3d6000fd5b505050506040513d601f19601f82011682018060405250810190610cea9190611f1c565b610d065760405162461bcd60e51b815260040161062d90611f3e565b6040818101516000908152600460208181528383208054600160ff19918216811790925533808652600380855287872060028089529181018652888820805490941690941790925591909301909152918390204290819055925191927fa119278839fb5d1dc95b9fcdf0df84f3a4ba67de95a5ca91a9a4e5e39ace9b4992610d8f929190611db5565b60405180910390a2610dae600160008051602061200f83398151915255565b50505050565b610dbc611437565b3360009081526003602052604090206002015460ff16610dee5760405162461bcd60e51b815260040161062d90611de1565b33600090815260036020526040902060010154815114610e205760405162461bcd60e51b815260040161062d90611e18565b606081015160009081526004602052604090205460ff1615610e8e5760405162461bcd60e51b815260206004820152602160248201527f4e554c4c49464945525f4558484155535445443a2050726f6f66205265706c616044820152607960f81b606482015260840161062d565b33600090815260056020908152604080832083805290915290205460ff1615610ec95760405162461bcd60e51b815260040161062d90611e45565b600054604051635fe8c13b60e01b81526001600160a01b0390911690635fe8c13b90610eff908790879087908790600401611f68565b602060405180830381865afa158015610f1c573d6000803e3d6000fd5b505050506040513d601f19601f82011682018060405250810190610f409190611f1c565b610f5c5760405162461bcd60e51b815260040161062d90611f3e565b606081015160009081526004602081815260408084208054600160ff1991821681179092553380875260038086528488208880529081018652848820805490931690931790915593019091528083204290819055905191927fa119278839fb5d1dc95b9fcdf0df84f3a4ba67de95a5ca91a9a4e5e39ace9b4992610d8f9290611db5565b7ff0c57e16840df040f15088dc2f81fe391c3923bec73e23a9662efc9c229c6a008054600160401b810460ff16159067ffffffffffffffff166000811580156110265750825b905060008267ffffffffffffffff1660011480156110435750303b155b905081158015611051575080155b1561106f5760405163f92ee8a960e01b815260040160405180910390fd5b845467ffffffffffffffff19166001178555831561109957845460ff60401b1916600160401b1785555b6110a233611673565b6110aa611684565b6110b261168c565b600080546001600160a01b03808b166001600160a01b031992831617909255600180548a84169083161790556002805492891692909116919091179055831561113557845460ff60401b19168555604051600181527fc7f505b2f371ae2175ee4913f4499e1f2633a7b5936321eed1cdaeb6115181d29060200160405180910390a15b5050505050505050565b6000807f237e158222e3e6968b72b9db0d8043aacf074ad9f650f0d1606b4d82ee432c00610b63565b611170611437565b3360009081526003602052604090206002015460ff166111a25760405162461bcd60e51b815260040161062d90611de1565b336000908152600360205260409020600101548151146111d45760405162461bcd60e51b815260040161062d90611e18565b60408082015160009081526004602052205460ff161561122c5760405162461bcd60e51b815260206004820152601360248201527213955313125192515497d15612105554d51151606a1b604482015260640161062d565b3360009081526005602090815260408083206001845290915290205460ff16156112685760405162461bcd60e51b815260040161062d90611e45565b6001546040516308a3cff560e11b81526001600160a01b03909116906311479fea9061129e908790879087908790600401611ebf565b602060405180830381865afa1580156112bb573d6000803e3d6000fd5b505050506040513d601f19601f820116820180604052508101906112df9190611f1c565b6112fb5760405162461bcd60e51b815260040161062d90611f3e565b6040818101516000908152600460208181528383208054600160ff1991821681179092553380865260038085528787208488529081018552878720805490931684179092559301909152918390204290819055925190927fa119278839fb5d1dc95b9fcdf0df84f3a4ba67de95a5ca91a9a4e5e39ace9b4992610d8f92909190611db5565b611388611405565b7f237e158222e3e6968b72b9db0d8043aacf074ad9f650f0d1606b4d82ee432c0080546001600160a01b0319166001600160a01b03831690811782556113cc610b3e565b6001600160a01b03167f38d16b8cac22d99fc7c124b9cd0de2d3fa1faef420bfe791d8c362d765e2270060405160405180910390a35050565b3361140e610b3e565b6001600160a01b0316146109fd5760405163118cdaa760e01b815233600482015260240161062d565b60008051602061200f83398151915280546001190161146957604051633ee5aeb560e01b815260040160405180910390fd5b60029055565b600160008051602061200f83398151915255565b306001600160a01b037f000000000000000000000000000000000000000000000000000000000000000016148061150a57507f00000000000000000000000000000000000000000000000000000000000000006001600160a01b03166114fe600080516020611fef833981519152546001600160a01b031690565b6001600160a01b031614155b156109fd5760405163703e46dd60e11b815260040160405180910390fd5b610717611405565b816001600160a01b03166352d1902d6040518163ffffffff1660e01b8152600401602060405180830381865afa92505050801561158a575060408051601f3d908101601f1916820190925261158791810190611fb9565b60015b6115b257604051634c9c8ce360e01b81526001600160a01b038316600482015260240161062d565b600080516020611fef83398151915281146115e357604051632a87526960e21b81526004810182905260240161062d565b6115ed838361169c565b505050565b306001600160a01b037f000000000000000000000000000000000000000000000000000000000000000016146109fd5760405163703e46dd60e11b815260040160405180910390fd5b7f237e158222e3e6968b72b9db0d8043aacf074ad9f650f0d1606b4d82ee432c0080546001600160a01b031916815561094f826116f2565b61167b611763565b610717816117ac565b6109fd611763565b611694611763565b6109fd6117de565b6116a5826117e6565b6040516001600160a01b038316907fbc7cd75a20ee27fd9adebab32041f755214dbc6bffa90cc0225b39da2e5c2d3b90600090a28051156116ea576115ed828261184b565b61094f6118c1565b7f9016d09d72d40fdae2fd8ceac6b6234c7706214fd39c1cd1e609a0528c19930080546001600160a01b031981166001600160a01b03848116918217845560405192169182907f8be0079c531659141344cd1fd0a4f28419497f9722a3daafe3b4186f6b6457e090600090a3505050565b7ff0c57e16840df040f15088dc2f81fe391c3923bec73e23a9662efc9c229c6a0054600160401b900460ff166109fd57604051631afcd79f60e31b815260040160405180910390fd5b6117b4611763565b6001600160a01b038116610a3b57604051631e4fbdf760e01b81526000600482015260240161062d565b61146f611763565b806001600160a01b03163b60000361181c57604051634c9c8ce360e01b81526001600160a01b038216600482015260240161062d565b600080516020611fef83398151915280546001600160a01b0319166001600160a01b0392909216919091179055565b6060600080846001600160a01b0316846040516118689190611fd2565b600060405180830381855af49150503d80600081146118a3576040519150601f19603f3d011682016040523d82523d6000602084013e6118a8565b606091505b50915091506118b88583836118e0565b95945050505050565b34156109fd5760405163b398979f60e01b815260040160405180910390fd5b6060826118f5576118f08261193f565b611938565b815115801561190c57506001600160a01b0384163b155b1561193557604051639996b31560e01b81526001600160a01b038516600482015260240161062d565b50805b9392505050565b80511561194e57805160208201fd5b60405163d6bda27560e01b815260040160405180910390fd5b80356001600160a01b038116811461197e57600080fd5b919050565b80356003811061197e57600080fd5b600080604083850312156119a557600080fd5b6119ae83611967565b91506119bc60208401611983565b90509250929050565b6000602082840312156119d757600080fd5b61193882611967565b6000602082840312156119f257600080fd5b5035919050565b634e487b7160e01b600052604160045260246000fd5b6040805190810167ffffffffffffffff81118282101715611a3257611a326119f9565b60405290565b604051601f8201601f1916810167ffffffffffffffff81118282101715611a6157611a616119f9565b604052919050565b60008060408385031215611a7c57600080fd5b611a8583611967565b915060208084013567ffffffffffffffff80821115611aa357600080fd5b818601915086601f830112611ab757600080fd5b813581811115611ac957611ac96119f9565b611adb601f8201601f19168501611a38565b91508082528784828501011115611af157600080fd5b80848401858401376000848284010152508093505050509250929050565b60008060408385031215611b2257600080fd5b611b2b83611983565b91506119bc60208401611967565b600082601f830112611b4a57600080fd5b611b52611a0f565b806040840185811115611b6457600080fd5b845b81811015611b7e578035845260209384019301611b66565b509095945050505050565b600082601f830112611b9a57600080fd5b611ba2611a0f565b806080840185811115611bb457600080fd5b845b81811015611b7e57611bc88782611b39565b8452602090930192604001611bb6565b600080600080610160808688031215611bf057600080fd5b611bfa8787611b39565b9450611c098760408801611b89565b9350611c188760c08801611b39565b92508661011f870112611c2a57600080fd5b6040516060810181811067ffffffffffffffff82111715611c4d57611c4d6119f9565b604052908601908088831115611c6257600080fd5b61010088015b83811015611c80578035825260209182019101611c68565b5050809250505092959194509250565b600080600080610180808688031215611ca857600080fd5b611cb28787611b39565b9450611cc18760408801611b89565b9350611cd08760c08801611b39565b92508661011f870112611ce257600080fd5b6040516080810181811067ffffffffffffffff82111715611c4d57611c4d6119f9565b60005b83811015611d20578181015183820152602001611d08565b50506000910152565b6020815260008251806020840152611d48816040850160208701611d05565b601f01601f19169190910160400192915050565b600080600060608486031215611d7157600080fd5b611d7a84611967565b9250611d8860208501611967565b9150611d9660408501611967565b90509250925092565b634e487b7160e01b600052602160045260246000fd5b6040810160038410611dd757634e487b7160e01b600052602160045260246000fd5b9281526020015290565b60208082526017908201527f4964656e74697479206e6f742072656769737465726564000000000000000000604082015260600190565b602080825260139082015272086dedadad2e8dacadce840dad2e6dac2e8c6d606b1b604082015260600190565b6020808252600f908201526e10db185a5b481cdd5cdc195b991959608a1b604082015260600190565b8060005b6002811015610dae578151845260209384019390910190600101611e72565b8060005b6002811015610dae57611ea9848351611e6e565b6040939093019260209190910190600101611e95565b6101608101611ece8287611e6e565b611edb6040830186611e91565b611ee860c0830185611e6e565b61010082018360005b6003811015611f10578151835260209283019290910190600101611ef1565b50505095945050505050565b600060208284031215611f2e57600080fd5b8151801515811461193857600080fd5b60208082526010908201526f24a72b20a624a22fad25afa82927a7a360811b604082015260600190565b6101808101611f778287611e6e565b611f846040830186611e91565b611f9160c0830185611e6e565b61010082018360005b6004811015611f10578151835260209283019290910190600101611f9a565b600060208284031215611fcb57600080fd5b5051919050565b60008251611fe4818460208701611d05565b919091019291505056fe360894a13ba1a3210667c828492db98dca3e2076cc3735a920a3ca505d382bbc9b779b17422d0df92223018b32b4d1fa46e071723d6817e2486d003becc55f00a2646970667358221220777dfe1b42ddeba4671000f8706b83afb67c02f438ec98c4ab2704d15a162db264736f6c63430008180033",
  "linkReferences": {},
  "deployedLinkReferences": {}
}